:1000000046C1000064C1000062C1000060C1000080
:100010005EC100005CC100005AC1000058C1000070
:1000200056C100000AC5000052C1000050C10000C6
:100030004EC100004CC100004AC1000048C1000090
:1000400046C1000044C1000042C1000040C10000A0
:100050003EC100003CC100003AC1000038C10000B0
:1000600036C1000034C1000032C1000030C10000C0
:100070002EC100002CC100002AC1000028C10000D0
:1000800026C1000024C1000022C1000020C10000E0
:100090001EC100001CC100001AC1000018C10000F0
:1000A00016C1000014C1000012C1000010C1000000
:1000B0000EC100000CC100000AC1000008C1000010
:1000C00006C1000004C1000002C1000000C1000020
:1000D000FEC00000FCC00000FAC00000F8C0000034
:1000E000F6C0000008000000BE922449123EABAAF0
:1000F000AA2ABECDCCCC4C3E00000080BEABAAAA42
:10010000AA3E00000000BF000000803F0000000089
:1001100000084178D3BB4387D1133D190E3CC3BDC2
:100120004282AD2B3E68EC8276BED98FE1A93E4C6F
:1001300080EFFFBE01C4FF7F3F00000000006E6142
:100140006E00696E660000407A10F35A00A0724E8D
:1001500018090010A5D4E80000E87648170000E46C
:100160000B54020000CA9A3B000000E1F5050000B4
:1001700080969800000040420F000000A086010019
:100180000000102700000000E803000000006400E9
:10019000000000000A000000000001000000000054
:1001A0002C76D888DC674F0823DFC1DFAE59E1B178
:1001B000B796E5E3E453C63AE651997696E8E6C287
:1001C0008426EB898C9B62ED407C6FFCEFBC9C9F8E
:1001D00040F2BAA56FA5F490055A2AF75C936B6CB0
:1001E000F9676DC11BFCE0E40D47FEF520E6B500A4
:1001F000D0ED902E0300943577050080841E080012
:1002000000204E0A000000C80C333333330F986EC1
:1002100012831141EF8D2114893BE65516CFFEE67E
:10022000DB18D1844B381BF77C1D901DA4BBE42444
:10023000203284725E228100C9F124ECA1E53D27C1
:100240006364696E6F70737578585B656667454661
:100250004700616E006E66696E69747900CDCCCC22
:100260003D0AD7233C17B7D13877CC2B329595E68A
:10027000241FB14F0A000020410000C84200401C6A
:100280004620BCBE4CCA1B0E5AAEC59D740011243C
:100290001FBECFEFD1E2DEBFCDBF00E00CBF12E04A
:1002A000A0E0B2E0E2EEF7E200E00BBF02C0079090
:1002B0000D92A63AB107D9F722E0A6EAB2E001C052
:1002C0001D92A23BB207E1F70ED40C94EF1398CE27
:1002D000CF92DF92EF92FF92609178007091790057
:1002E00080E090E0A6D59B01AC0160E070E080E882
:1002F00094E437D520E030E040E85FE3CDD420E05F
:1003000030E44CE156E468D627D66B017C01EAE77D
:10031000F0E080818064808329E537E44CEB53E38F
:10032000C701B60159D6A701960156D623E73FE784
:1003300045E759E3B2D4A70196014ED62BEE3FEF25
:1003400043E95AE3AAD49B01AC0160E070E080E885
:100350009FE307D523E333E948E853E49DD4FF90B6
:10036000EF90DF90CF900895ECE7F0E0808180641B
:10037000808381E080937E0087EC80937A000895EB
:100380008091060188239CF08FE39CE90197F1F7A7
:1003900000C0000080910601082E000C990B80958A
:1003A0009095892F881F8827881F90E00895809155
:1003B000060186FD0DC08FE39CE90197F1F700C0AF
:1003C00000008091060186FF25C080E090E008953E
:1003D0008091060185FD0DC08FE39CE90197F1F73F
:1003E00000C000008091060185FF17C080E090E00A
:1003F00008958091060184FD13C08FE39CE9019765
:10040000F1F700C000008091060184FF0CC080E07D
:1004100090E0089582E090E0089583E090E00895F0
:1004200080E090E0089584E090E00895E8E0F1E055
:1004300080818F60808380910502909106028130D7
:10044000910509F580818E7F80832FEF80E792E010
:10045000215080409040E1F700C000002FEF80E77E
:1004600092E0215080409040E1F700C00000809170
:100470000502909106020196909306028093050270
:1004800084E090E008958230910519F5E8E0F1E00C
:1004900080818D7F80832FEF80E792E02150804024
:1004A0009040E1F700C000002FEF80E792E021507C
:1004B00080409040E1F700C00000809105029091DB
:1004C00006020196909306028093050283E090E075
:1004D00008958330910519F5E8E0F1E080818B7F84
:1004E00080832FEF80E792E0215080409040E1F739
:1004F00000C000002FEF80E792E021508040904044
:10050000E1F700C00000809105029091060201967B
:10051000909306028093050282E090E0089504978C
:10052000F1F4E8E0F1E08081877F80832FEF80E7BE
:1005300092E0215080409040E1F700C000002FEF92
:1005400080E792E0215080409040E1F700C0000039
:1005500081E090E09093060280930502089580E088
:1005600090E008950F931F93CF93DF9300D01F92D5
:100570001F92CDB7DEB7813409F448C030F483321E
:1005800009F459C08A3249F055C0833479F008F42F
:1005900045C0843409F436C04DC01092A9021092AF
:1005A000A802C0D185E192E0D2D145C082E090E0BE
:1005B0009093A9028093A802B5D18ADE8E010F5FC5
:1005C0001F4F23E047E00E94341085E192E0BFD145
:1005D000C801BDD184E292E0BAD12FEF83ED90E360
:1005E000215080409040E1F700C00000C9DE8C013E
:1005F0001DDFB8012AD08091A8029091A90202972C
:10060000D9F219C080E092E0C8D215C08BD188EC35
:1006100090E03DD386E292E09AD10DC01092A902FB
:100620001092A8027FD180E090E031D381E392E084
:100630008ED101C07AD10F900F900F900F900F9034
:10064000DF91CF911F910F910895CF93611571059F
:10065000D9F00097C9F0FC01660F771F660F771F6E
:10066000E60FF71FE559FD4FC0818C2F90E00E94E7
:10067000FA118C2F77DF2FEF82E597E02150804031
:100680009040E1F700C00000CF910895CF92DF9233
:10069000EF92FF920F931F93CF93DF93CDB7DEB707
:1006A0002B970FB6F894DEBF0FBECDBF6C017B0158
:1006B00060E072E0CE0101960E9451118C01892BFD
:1006C00009F445C0E114F10489F1C114D10471F1B8
:1006D0008091A6029091A702DE01A80FB91FF70131
:1006E000EE0FFF1FEE0FFF1FEC0DFD1DE559FD4F37
:1006F000208114962C939F938F938AE492E09F938A
:100700008F930E94E6118DE492E021D18091A602A0
:100710009091A70201969093A7028093A6020F9052
:100720000F900F900F9001E010E03BC08091A60267
:100730009091A702049799F51886BE016C5F7F4FD0
:10074000CE0101960E945A1101E010E02AC0CE01AC
:1007500004969F938F938AE492E09F938F930E94D5
:10076000E611E0D08FE492E0F2D080E692E0EFD0A4
:100770002AEA34ED8CE191E02150304080409040F5
:10078000D9F70000CFD085E192E0E1D01092A70226
:100790001092A6020F900F900F900F9002C001E0F0
:1007A00010E0C8012B960FB6F894DEBF0FBECDBF88
:1007B000DF91CF911F910F91FF90EF90DF90CF903D
:1007C0000895E2E0F1E08081806280830000808112
:1007D0008F7D80830895CF93C82F662331F0E2E0A8
:1007E000F1E080818061808305C0E2E0F1E08081FA
:1007F0008F7E8083E2E0F1E08081877F8083A1E0CB
:10080000B1E08C9180648C93249A259A269A2E9834
:100810002D982C9880818F7B8083CC230CF42E9A8A
:10082000C6FD2D9AC5FD2C9AC4FF05C0E2E0F1E09B
:10083000808180648083C5DF2E982D982C98E2E01B
:10084000F1E080818F7B8083C3FD2E9AC2FD2D9ABB
:10085000C1FD2C9AC0FF05C0E2E0F1E08081806418
:100860008083AFDFE2E0F1E08081806480832C9AB6
:100870002D9A2E9ACF910895882331F0E2E0F1E08D
:1008800080818061808305C0E2E0F1E080818F7E1D
:100890008083E2E0F1E0808188608083A1E0B1E0C4
:1008A0008C918F7B8C9324982598269880818062E8
:1008B000808300008091000186FF02C080E101C0BA
:1008C00080E01C9980621D9980641E998068E2E036
:1008D000F1E090819F7D90830000908190629083F1
:1008E00000009091000196FD81601C9982601D9925
:1008F00084601E998860E2E0F1E090819F7D9083A2
:10090000089580E0B9DF8823E4F300C000C080E0F0
:10091000B3CF0895CF93C82FF4DF60E08C2F5BDF57
:10092000CF91089581E0F6CF0895CF93C82FE9DFE6
:10093000CA3041F4803410F080E001C080E4805877
:10094000E9DF03C061E08C2F46DFCF910895CF939C
:10095000DF93EC012196FC018081882321F0E5DF03
:1009600089918111FCCFDF91CF9108951F93CF938F
:10097000DF93182FE1E0F1E0808180618083808146
:1009800088608083808180628083808180648083AE
:10099000249A259A269A8FE99FE00197F1F700C0E3
:1009A00000002C9AC2E0D1E088818064888309DF4E
:1009B00081EE94E00197F1F700C0000002DF95E1BD
:1009C0009A95F1F70000FDDE85E18A95F1F70000C8
:1009D00088818F7B8883F5DE95E19A95F1F7000099
:1009E00088E298DF88E096DF9DDF86E093DF812F45
:1009F00091DFDF91CF911F910895B7D07894E7E010
:100A0000F1E080818F608083E8E0F1E080818FEF0A
:100A10008083089587DF8FE0A9DF80E892E097CF99
:100A20000895E8E6F0E0808181608083EBE6F0E005
:100A3000808181608083789408951F920F920FB611
:100A40000F9211240BB60F922F933F934F935F9306
:100A50006F937F938F939F93AF93BF93EF93FF9386
:100A600061DF8EE892E073DF2FE784E89EE121509A
:100A700080409040E1F700C0000054DF2FE382E4A3
:100A80009FE0215080409040E1F700C000008EE8D8
:100A900092E05DDF2FE784E89EE1215080409040A6
:100AA000E1F700C000003EDF86E992E050DF80E021
:100AB00090E0EDD081E090E09093AB028093AA02A9
:100AC000FF91EF91BF91AF919F918F917F916F9126
:100AD0005F914F913F912F910F900BBE0F900FBEE2
:100AE0000F901F90189589DF9CDF94DF3DDCB8D014
:100AF00050D081E090E09093AB028093AA0240DC5A
:100B0000EC0194DCBE01A1DD8091AA029091AB02C0
:100B10000197A9F735DCEC0189DCBE01B7DD9093C4
:100B2000AB028093AA028091AA029091AB02019736
:100B300089F3E5CFE0ECF0E0908195FFFDCF809365
:100B4000C6000895CF93E0ECF0E080818823ECF7B5
:100B5000C091C600CA3029F08C2FECDF8C2F90E0BA
:100B600002C08FEF9FEFCF910895ECEAF2E087E0AB
:100B700092E093838283918380831092C50087E6FD
:100B80008093C40088E18093C10086E08093C20016
:100B9000089587B18F6087B90895181619060CF06B
:100BA0005EC020E030E072E064E058E049E0E8B187
:100BB00018B8AFEFE9EFF0E0A150E040F040E1F706
:100BC00000C00000409AAFEFE9EFF0E0A150E04034
:100BD000F040E1F700C00000419AAFEFE9EFF0E02C
:100BE000A150E040F040E1F700C0000078B9AFEF5D
:100BF000E9EFF0E0A150E040F040E1F700C0000074
:100C0000429AAFEFE9EFF0E0A150E040F040E1F7A9
:100C100000C0000068B9AFEFE9EFF0E0A150E0409C
:100C2000F040E1F700C00000439AAFEFE9EFF0E0D9
:100C3000A150E040F040E1F700C0000058B9AFEF2C
:100C4000E9EFF0E0A150E040F040E1F700C0000023
:100C500048B92F5F3F4F8217930709F0A8CF089537
:100C6000E0E2F1E080818860808380818160808320
:100C7000E1E2F1E080818B608083EAE0F1E0808155
:100C8000806E808310922D0110922C010895909314
:100C90002D0180932C0108955058BB27AA270ED010
:100CA0001CC10DD130F012D120F031F49F3F11F46E
:100CB0001EF402C10EF4E095E7FBF8C0E92F1ED147
:100CC00080F3BA17620773078407950718F071F469
:100CD0009EF536C10EF4E0950B2EBA2FA02D0B0118
:100CE000B90190010C01CA01A0011124FF27591B71
:100CF00099F0593F50F4503E68F11A16F040A22F77
:100D0000232F342F4427585FF3CF469537952795E7
:100D1000A795F0405395C9F77EF41F16BA0B620BE6
:100D2000730B840BBAF09150A1F0FF0FBB1F661F2D
:100D3000771F881FC2F70EC0BA0F621F731F841F70
:100D400048F4879577956795B795F7959E3F08F096
:100D5000B3CF9395880F08F09927EE0F9795879555
:100D600008950CD0BAC0B2D040F0A9D030F021F430
:100D70005F3F19F09BC05111E4C09EC0BFD098F3F3
:100D80009923C9F35523B1F3951B550BBB27AA270C
:100D900062177307840738F09F5F5F4F220F331F7E
:100DA000441FAA1FA9F333D00E2E3AF0E0E830D04A
:100DB00091505040E695001CCAF729D0FE2F27D04D
:100DC000660F771F881FBB1F261737074807AB071B
:100DD000B0E809F0BB0B802DBF01FF2793585F4F90
:100DE0002AF09E3F510568F061C0ABC05F3FECF355
:100DF000983EDCF3869577956795B795F7959F5F55
:100E0000C9F7880F911D9695879597F90895E1E0A8
:100E1000660F771F881FBB1F621773078407BA0707
:100E200020F0621B730B840BBA0BEE1F88F7E09562
:100E30000895E89409C097FB3EF4909580957095CD
:100E400061957F4F8F4F9F4F9923A9F0F92F96E916
:100E5000BB279395F695879577956795B795F1118B
:100E6000F8CFFAF4BB0F11F460FF1BC06F5F7F4F28
:100E70008F4F9F4F16C0882311F096E911C077233A
:100E800021F09EE8872F762F05C0662371F096E843
:100E9000862F70E060E02AF09A95660F771F881F12
:100EA000DAF7880F9695879597F9089597F99F67D0
:100EB00080E870E060E008959FEF80EC08950024E2
:100EC0000A941616170618060906089500240A94AF
:100ED00012161306140605060895092E0394000C35
:100EE00011F4882352F0BB0F40F4BF2B11F460FFC4
:100EF00004C06F5F7F4F8F4F9F4F089557FD9058ED
:100F0000440F551F59F05F3F71F04795880F97FBCD
:100F1000991F61F09F3F79F0879508951216130687
:100F20001406551FF2CF4695F1DF08C016161706B6
:100F30001806991FF1CF86957105610508940895EB
:100F4000E894BB2766277727CB0197F908950EF021
:100F5000A6C0B2CF6894AACFD9DFC8F39923D1F342
:100F6000C6F3DF93CF931F930F93FF92C92FDD2713
:100F700088232AF02197660F771F881FDAF720E071
:100F800030E040E85FEB9FE3883920F0803E30F0AE
:100F900021968F7782DEE4EEF0E003C07EDEE1E1B1
:100FA000F1E08BD08B01BE01EC01FB2E6F57710974
:100FB0007595771F880B990B3EDF28E132E741E3F7
:100FC0005FE316D0AF2D9801AE01FF900F911F91F6
:100FD000CF91DF9173DE81CF0BD07FCF70DF28F010
:100FE00075DF18F0952309F061CF66CF1124A9CFE2
:100FF00085DFA0F3959FD1F3950F50E0551F629FB9
:10100000F001729FBB27F00DB11D639FAA27F00D61
:10101000B11DAA1F649F6627B00DA11D661F829F88
:101020002227B00DA11D621F739FB00DA11D621F6D
:10103000839FA00D611D221F749F3327A00D611D8A
:10104000231F849F600D211D822F762F6A2F11246C
:101050009F5750408AF0E1F088234AF0EE0FFF1FBF
:10106000BB1F661F771F881F91505040A9F79E3FF6
:10107000510570F01BCF65CF5F3FECF3983EDCF37A
:10108000869577956795B795F795E7959F5FC1F733
:10109000FE2B880F911D9695879597F908959F3F90
:1010A00031F0915020F4879577956795B795880F23
:1010B000911D9695879597F90895DF93CF931F9388
:1010C0000F93FF92EF92DF927B018C01689405C031
:1010D000DA2EEF018DDFFE01E894A591259135917F
:1010E00045915591AEF3EF01E9DDFE019701A801AD
:1010F000DA9479F7DF90EF90FF900F911F91CF91E5
:10110000DF9108952F923F924F925F926F927F925C
:101110008F929F92AF92BF92CF92DF92EF92FF9207
:101120000F931F93CF93DF93CDB7DEB760970FB6C2
:10113000F894DEBF0FBECDBF7C011B016A01FC012C
:1011400017821682838181FF2BC39E012F5F3F4F41
:101150003901F7019381F10193FD859193FF81910D
:101160001F01882309F418C3853239F493FD859152
:1011700093FF81911F01853239F4B70190E00E94FD
:10118000AA1156016501E5CF10E0512C912CFFE129
:10119000F915D8F08B3279F038F4803279F0833257
:1011A000A1F4F92DF0612EC08D3261F0803369F425
:1011B000292D21602DC0392D3260932E892D846018
:1011C000982E2AC0E92DE86015C097FC2DC020EDAF
:1011D000280F2A3088F496FE06C03AE0139F200DAF
:1011E0001124122F19C08AE0589E200D1124522E6E
:1011F000E92DE0629E2E10C08E3231F496FCCCC2F6
:10120000F92DF0649F2E08C08C3621F4292D20681A
:10121000922E02C0883641F4F10193FD859193FF2F
:1012200081911F018111B3CF9BEB980F933020F474
:10123000992D9061805E07C09BE9980F933008F06C
:1012400059C1992D9F7E96FF16E09F73992E853682
:1012500019F49064992E08C0863621F4392F30682D
:10126000932E02C01111115097FE07C01C3350F489
:1012700044244394410E27E00BC0183038F027E097
:1012800017E005C027E09CE3492E02C0212F412C26
:10129000560184E0A80EB11CF60160817181828143
:1012A0009381042DA301FFD66C01F981FC87F0FF27
:1012B00002C0F3FF06C091FC06C092FE06C000E229
:1012C00005C00DE203C00BE201C000E08C858C700C
:1012D00019F0011143C280C297FE10C04C0CFC856E
:1012E000F4FF04C08A81813309F44A94141474F51C
:1012F00028E0241578F588E0482E2CC096FC2AC0FA
:10130000812F90E08C159D059CF03CEFC3163FEFBC
:10131000D30674F0892D8068982E0AC0E2E0F0E0D0
:10132000EC0FFD1FE10FF11D8081803319F4115086
:101330001111F4CF97FE0EC044244394410E812F27
:1013400090E0C816D9062CF41C1904C04424439418
:1013500001C010E097FE06C01C141D0434F4C60141
:10136000019605C085E090E002C081E090E00111A7
:101370000196112331F0212F30E02F5F3F4F820F74
:10138000931F252D30E08217930714F4581A01C0DB
:10139000512C892D897041F4552031F0B70180E23C
:1013A00090E0D8D75A94F8CF002321F0B701802FCE
:1013B00090E0D0D793FC08C0552031F0B70180E30E
:1013C00090E0C8D75A94F8CF97FE4AC04601D7FE9E
:1013D00002C0812C912CC60188199909F301E80FEC
:1013E000F91FFE87ED87960124193109388B2F8765
:1013F000012F10E01195019511093FEF8316930617
:1014000021F4B7018EE290E0A5D7C814D9044CF0BE
:101410008F8598898815990524F4ED85FE8581814D
:1014200001C080E3F1E08F1A91082D853E852F5F82
:101430003F4F3E872D878016910624F0B70190E03C
:1014400089D7DBCFC814D90441F49A81963320F4AC
:10145000953319F43C8534FF81E3B70190E048C02F
:101460008A81813319F09C859F7E9C87B70190E02B
:1014700071D7111105C094FC16C085E690E015C027
:10148000B7018EE290E066D71E5F82E001E0080FB0
:10149000F301E80FF11D8081B70190E05BD7802F49
:1014A0000113F4CFE8CF85E490E0B70153D7D7FC20
:1014B00006C0C114D10441F4EC85E4FF05C0D19409
:1014C000C194D1088DE201C08BE2B70190E042D710
:1014D00080E32AE0C216D1042CF08F5FFAE0CF1A25
:1014E000D108F7CFB70190E035D7B701C601C09654
:1014F00031D749C1833631F0833779F0833509F02C
:1015000052C01FC0560132E0A30EB11CF60180810B
:10151000898301E010E0630111C05601F2E0AF0ED3
:10152000B11CF601C080D18096FE03C0612F70E02F
:1015300002C06FEF7FEFC601C4D68C01F92DFF7793
:1015400013C0560122E0A20EB11CF601C080D1806A
:1015500096FE03C0612F70E002C06FEF7FEFC601FF
:1015600095D68C01F92DF0689F2EF3FD18C0852DBE
:1015700090E00817190798F4B70180E290E0EAD6E6
:101580005A94F5CFF60197FC859197FE81916F01F2
:10159000B70190E0DFD651105A940150110901159E
:1015A000110581F7F0C0843611F0893659F55601DE
:1015B00097FE09C024E0A20EB11CF6016081718182
:1015C000828193810AC0F2E0AF0EB11CF601608106
:1015D0007181072E000C880B990BF92DFF769F2E39
:1015E00097FF09C090958095709561957F4F8F4FBB
:1015F0009F4FF0689F2E2AE030E0A30119D7C82E34
:10160000C6183EC0092D853721F40F7E2AE030E050
:101610001DC0097F8F3691F018F4883559F0BCC091
:10162000803719F0883711F0B7C0006104FF09C096
:10163000046007C094FE08C0066006C028E030E0E1
:1016400005C020E130E002C020E132E0560107FF92
:1016500009C084E0A80EB11CF6016081718182810D
:10166000938108C0F2E0AF0EB11CF6016081718178
:1016700080E090E0A301DCD6C82EC6180F77902E2C
:1016800096FE0BC0092D0E7FC11650F494FE0AC0C1
:1016900092FC08C0092D0E7E05C0DC2C092D03C06C
:1016A000DC2C01C0D12E04FF0DC0FE01EC0DF11D9C
:1016B0008081803311F4097E09C002FF06C0D394F3
:1016C000D39404C0802F867809F0D39403FD10C012
:1016D00000FF06C01C2DD51478F4150D1D190CC083
:1016E000D51450F4B70180E290E034D6D394F8CF0B
:1016F000D51410F45D1801C0512C04FF0FC0B701C0
:1017000080E390E027D602FF16C001FD03C088E702
:1017100090E002C088E590E0B7010CC0802F867889
:1017200051F001FF02C08BE201C080E207FD8DE2B3
:10173000B70190E00FD6C11630F4B70180E390E016
:1017400009D61150F8CFCA94F301EC0DF11D808138
:10175000B70190E0FFD5C110F6CF15C0F4E0F51544
:1017600050F584E0581A93FE1EC0011125C02C8547
:1017700023FF27C00EE311E0392D3071932EF801BD
:101780008491811121C0552009F4FCCCB70180E27D
:1017900090E0E0D55A94F7CFF7018681978123C076
:1017A0008FEF9FEF20C0B70180E290E0D3D55A942D
:1017B0005110F9CFDACF512CB701802F90E0CAD564
:1017C000D6CF02E411E0D8CF91108052B70190E05B
:1017D000C1D50F5F1F4FD3CF23E0251510F483E051
:1017E000C1CF512CC4CF60960FB6F894DEBF0FBEA8
:1017F000CDBFDF91CF911F910F91FF90EF90DF90C0
:10180000CF90BF90AF909F908F907F906F905F90A0
:101810004F903F902F90089520FD09C0FC0123FDBB
:1018200005C022FF02C07383628351834083089501
:1018300044FD17C046FD17C0AB01BC01DA01FB0136
:10184000AA0FBB1FEE1FFF1F1094D1F74A0F5B1F9B
:101850006E1F7F1FCB01BA01660F771F881F991F6C
:1018600009C033E001C034E0660F771F881F991F5D
:101870003150D1F7620F711D811D911D08950F9395
:101880001F93CF93DF938C01C80126D5EC0197FD00
:1018900006C0E1D4892BC1F7B801CE01B0D5CE0185
:1018A000DF91CF911F910F9108958F929F92AF92E8
:1018B000BF92CF92DF92EF92FF920F931F93CF933D
:1018C000DF937C018B016A01D22F06D59C0133275F
:1018D0002B32310521F02D32310551F4D068015001
:1018E000110911F480E064C0C701F6D497FDFACF66
:1018F000CD2FCD7F2D2F207309F58033F9F45801BA
:1019000081E0A81AB10809F440C0C701E5D497FDE9
:101910003CC09C012F7D33272835310549F4C26432
:101920000250110991F1C701D7D497FF07C02DC00C
:10193000D6FF02C0C26001C0C2618501812C912C1A
:10194000540120ED280F283078F0C4FF03C0B70100
:1019500056D518C02A3040F0C6FFF9CF2F7D3FEE94
:10196000320F3630A0F727504C2FC501B40160DF8D
:101970004B015C01C2600150110951F0C701ACD4A8
:1019800097FFDFCFC1FD04C0ADCF812C912C540156
:10199000C7FF08C0B094A09490948094811C911CBF
:1019A000A11CB11C2C2FB501A401C60135DF81E0BB
:1019B000DF91CF911F910F91FF90EF90DF90CF902B
:1019C000BF90AF909F908F9008954F925F926F92CB
:1019D0007F928F929F92AF92BF92CF92DF92EF92BF
:1019E000FF920F931F93CF93DF93CDB7DEB7A097EE
:1019F0000FB6F894DEBF0FBECDBF5C014B017A017C
:101A00008E010F5F1F4F680180E2F80111928A95E5
:101A1000E9F7F501538040E050E0612C90E0712C33
:101A2000A1E0B0E0F90153FC859153FE81918F0153
:101A3000482E9F01811103C080E090E094C08E3554
:101A400019F44115510551F1672D70E064177507C0
:101A50003CF48D3561F18D3219F4992311F103C0F5
:101A6000992309F46BC0842D869586958695F60199
:101A7000E80FF11D842D87708D0102C0000F111F2A
:101A80008A95E2F7C8019081892B8083641459F00C
:101A9000461410F44394E7CF4A94E5CF7724739427
:101AA00003C091E001C090E04F5F5F4FBBCF99232F
:101AB00019F08E8180628E83711003C07724739435
:101AC00019C0F6019E012F5D3F4F80818095819363
:101AD0002E173F07D1F7F2CFE114F10431F0F701EF
:101AE0008083B7016F5F7F4F7B0171E0871A910898
:101AF000712CE9F0C501F0D397FD17C0FC01FF2759
:101B000023E0F595E7952A95E1F7EC0DFD1D208181
:101B100030E0AC014770552702C0359527954A95AE
:101B2000E2F720FDD9CFB5016AD4711085CFE11459
:101B3000F10411F0F7011082C80115C0682F6695F5
:101B400066956695F601E60FF11D682F67708D01A9
:101B500002C0000F111F6A95E2F7B8017081672B70
:101B60006083682EA1CFA0960FB6F894DEBF0FBE9B
:101B7000CDBFDF91CF911F910F91FF90EF90DF903C
:101B8000CF90BF90AF909F908F907F906F905F901D
:101B90004F9008952F923F924F925F926F927F9253
:101BA0009F92AF92BF92CF92DF92EF92FF920F93EC
:101BB0001F93CF93DF936C018B011A018DD3EC013E
:101BC00099278B32910529F08D9779F430E8932E7F
:101BD00001C0912C0150110911F480E0FEC0C60132
:101BE0007BD3EC0197FF02C0F8CF912CCE013BD301
:101BF0008936910531F08E36910581F5C2E5D2E046
:101C000002C0C5E5D2E02196FE013197B490BB2019
:101C1000B1F00150110979F0C6015ED37C0197FD46
:101C20000AC021D39927EB2DF0E08E179F0759F3B7
:101C3000B601C701E4D3C855D24079F603C0C555F3
:101C4000D24029F080E090E0A0E8BFE704C080E047
:101C500090E0A0ECBFE7BC01CD01AFC0412C512CFE
:101C60003201E12CF12C2C2F20532A3008F5E92DDC
:101C7000E260BE2E892D887092FE06C081111FC0C1
:101C8000FFEFEF1AFF0A1BC0882319F081E0E81A62
:101C9000F10840E2C301B201CBDD2B013C01683900
:101CA00079498949994158F0F92DF660BF2E07C04E
:101CB0002E3F81F493FC0EC0292D2860B22E0150D6
:101CC000110939F0C60108D3EC019B2C97FFCBCF4B
:101CD00001C09B2C91FE81CFCE018F7D9927853449
:101CE000910509F03EC0580181E0A81AB10809F435
:101CF00074CFC601F1D2EC0197FD6FCF99278B32DB
:101D0000910529F08D9761F4E92DE0619E2E58012F
:101D1000F2E0AF1AB10809F460CFC601DDD2EC01E0
:101D2000CE01C0970A9708F058CF8501A12CB12C9D
:101D3000B501BB0C880B990B2C2F205340E278DDAA
:101D40005B010150110931F0C601C6D2EC01C09708
:101D50000A9770F394FE03C0B194A194B108EA0C01
:101D6000FB1C012B29F0D7FD03C0B601CE0147D3E0
:101D7000C301B2015ED8F7FE06C0F194E194F10808
:101D8000C1E7D2E002C0C9E8D2E06E0128E1C21A80
:101D9000D10800E210E0E016F10648F0FE012591BE
:101DA00035914591549118D9E01AF10AF4CF24974E
:101DB00016950795CC16DD0671F797FE05C0DC0178
:101DC000CB01B058BC01CD012114310429F0F1013F
:101DD000608371838283938381E0DF91CF911F9130
:101DE0000F91FF90EF90DF90CF90BF90AF909F90BA
:101DF0007F906F905F904F903F902F9008956F92DB
:101E00007F928F929F92AF92BF92CF92DF92EF928A
:101E1000FF920F931F93CF93DF935C01EB014A0175
:101E2000FC0117821682612CF5010381FE0103FD7E
:101E3000859103FF8191182FEF01882309F400C1D8
:101E400090E009D2892B19F0C50119DDEDCF1532CB
:101E500041F4FE0103FD159103FF1191EF011532CD
:101E600071F4C50139D297FDE9C0412F50E09C01C2
:101E7000332724173507C1F2B501C1D2E1C01A32A8
:101E800041F403FD159103FF1191EF017724739441
:101E900001C0712CE12CF12C20ED210F2A3080F4AF
:101EA000F72DF2607F2EB70180E090E040E2C0DCC9
:101EB0007B01FE0103FD159103FF1191EF01ECCFB2
:101EC00071FE04C0E114F10421F4BAC0EE24EA94D6
:101ED000FE2C183619F01C3661F014C0FE0103FD0B
:101EE000159103FF1191EF01183661F4872D886079
:101EF000782E972D9460792EFE0103FD159103FF36
:101F00001191EF01112309F49BC0612F70E080E46F
:101F100092E0B1D1892B09F493C070FC07C0F401A1
:101F2000C080D180C40102964C0102C0C12CD12CCA
:101F30001E3649F4F5014681578160E070E0272D97
:101F4000C6016ADC71CF1336B1F471FC03C0EE2414
:101F5000E394F12CC501C0D197FD70C0C114D10428
:101F600029F0F6018083C60101966C0191E0E91A1F
:101F7000F10881F75FC01B3551F49E01A601B7013E
:101F8000C50123DDEC01892B09F054C04EC0C50109
:101F900076DC97FD53C01F36C9F140F4143691F139
:101FA0001936B9F1183509F03AC028C01337A9F02D
:101FB00018F4103719F133C0153721F11837F1F043
:101FC0002EC0C114D10429F0F6010083C601019688
:101FD0006C0191E0E91AF10859F0C5017DD18C013D
:101FE00097FD06C038D1892B61F3B501C80107D22E
:101FF000C114D104F9F0F60110821CC0F72DF06471
:102000007F2E07C0872D8062782E03C0972D9061A8
:10201000792E272DA601B701C50147DC04C0A60112
:10202000B701C501B7DD811105C0F501838180735A
:1020300029F406C070FCF8CE6394F6CE662019F041
:10204000862D90E002C08FEF9FEFDF91CF911F911F
:102050000F91FF90EF90DF90CF90BF90AF909F9047
:102060008F907F906F900895EF920F931F93CF936F
:10207000DF93E80147FD02C034E001C034E1042EE3
:10208000000C550B57FF03C0519541955109E32EA4
:10209000022F242FAE012AD2CE01DF91CF911F91C2
:1020A0000F91EF900895283008F027E03327DA01E8
:1020B000990F311D87FD916000966105710539F416
:1020C00032602E5F3D9330E32A95E1F708959F3FFC
:1020D00030F080387105610509F03C5F3C5F3D934D
:1020E000913008F08068911DDF93CF931F930F9379
:1020F000FF92EF92192F987F9695E92F96959695D6
:10210000E90FFF27E056FE4F99273327EE24FF24DF
:10211000A701E70105900894079428F4360FE71EFD
:10212000F81E491F511D660F771F881F991F0694BF
:10213000A1F70590079428F4E70EF81E491F561FD3
:10214000C11D770F881F991F661F0694A1F7059080
:10215000079428F4F80E491F561FC71FD11D880F7A
:10216000991F661F771F0694A1F70590079420F426
:10217000490F561FC71FD81F990F661F771F881F4B
:102180000694A9F784911095177041F0D695C795DC
:1021900057954795F794E7941A95C1F7E6E4F1E06F
:1021A00068941590159135916591959105907FE210
:1021B0007395E118F10A430B560BC90BD009C0F710
:1021C000E10CF11E431F561FC91FD01D7EF4703352
:1021D00011F48A95E6CFE894015030F0080F0AF424
:1021E0000027021708F4202F2395022F7A3328F0B6
:1021F00079E37D932A95E9F710C07D932A9589F6B6
:10220000069497956795379517951794E118F10AF5
:10221000430B560BC90BD00998F023957E9173950B
:102220007A3308F070E37C932013B8F77E917061E5
:102230007D9330F0839571E37D9370E32A95E1F708
:102240001124EF90FF900F911F91CF91DF9199276B
:1022500087FD909508959111BFC2803219F0895081
:102260008550D0F708959111089581548A5108F44A
:10227000805E855A0895FC010590061621F0002025
:10228000D9F7C00108953197CF010895FC01059059
:10229000615070400110D8F7809590958E0F9F1F68
:1022A0000895FB01DC018D91019080190110D9F393
:1022B000990B0895FB01DC0101900D920020E1F7DC
:1022C0000895FC016150704001900110D8F780958D
:1022D00090958E0F9F1F0895CF93DF93EC012B8174
:1022E00020FF33C026FF0AC02F7B2B838E819F8166
:1022F00001969F838E838A8190E029C022FF0FC0C0
:10230000E881F9818081082E000C990B009719F45F
:1023100020622B831AC03196F983E8830EC0EA85C8
:10232000FB85199597FF09C02B81019611F080E27A
:1023300001C080E1822B8B8308C02E813F812F5FFB
:102340003F4F3F832E83992702C08FEF9FEFDF918E
:10235000CF9108950F931F93CF93DF93FB012381B8
:1023600021FD03C08FEF9FEF2CC022FF16C04681D6
:102370005781248135814217530744F4A081B181EC
:102380009D012F5F3F4F318320838C9326813781BE
:102390002F5F3F4F3783268314C08B01EC01FB0175
:1023A0000084F185E02D1995892BE1F6D801169668
:1023B0008D919C911797019617969C938E931697E3
:1023C000CE01DF91CF911F910F910895CF93DF93AD
:1023D000CDB7DEB7AE014A5F5F4FFA0161917191EF
:1023E000AF018091AE029091AF020E948208DF910E
:1023F000CF9108956091AE027091AF02ABCFFB0117
:10240000238120FF12C026FD10C08F3F3FEF9307AE
:1024100061F082832F7D20642383268137812150C0
:10242000310937832683992708958FEF9FEF089509
:10243000FA01AA27283051F1203181F1E8946F93F5
:102440006E7F6E5F7F4F8F4F9F4FAF4FB1E03ED09B
:10245000B4E03CD0670F781F891F9A1FA11D680F39
:10246000791F8A1F911DA11D6A0F711D811D911D6C
:10247000A11D20D009F468943F912AE0269F1124E1
:102480003019305D3193DEF6CF010895462F477045
:10249000405D4193B3E00FD0C9F7F6CF462F4F70A0
:1024A000405D4A3318F0495D31FD4052419302D0FE
:1024B000A9F7EACFB4E0A6959795879577956795A4
:1024C000BA95C9F700976105710508959B01AC01A4
:1024D0000A2E06945795479537952795BA95C9F7CB
:1024E000620F731F841F951FA01D08958F929F92E6
:1024F000AF92BF92CF92DF92EF92FF920F931F9312
:10250000CF93DF93CDB7DEB729970FB6F894DEBF30
:102510000FBECDBF6A01122FB02E2BE3201720F083
:10252000FF24F394F00E02C02CE3F22E0F2D27E0CF
:10253000AE014F5F5F4FB7DDBC014981842F8970C9
:10254000813031F0E1FC06C0E0FE06C090E205C03B
:102550009DE203C09BE201C090E05E2D507143FFFD
:102560003CC0911102C083E001C084E0811718F4DF
:10257000212F281B01C020E051110BC0F601822F32
:1025800030E2882319F031938150FBCFC20ED11C69
:1025900020E0992329F0D6019C93F60131966F0132
:1025A000C6010396E2FE0AC03EE4D6013C9341E434
:1025B00011964C93119712963C9306C03EE6F60195
:1025C000308341E641833283FC01322F40E23323E2
:1025D00009F442C041933150FACF42FF44C09111F7
:1025E00002C083E001C084E0811718F4212F281B6A
:1025F00001C020E051110BC0F601822F30E2882388
:1026000019F031938150FBCFC20ED11C20E09923E9
:1026100029F0D6019C93F60131966F01C60103960D
:10262000E2FE0BC039E4D6013C933EE411963C93A4
:10263000119736E412963C9307C039E6F6013083D1
:102640003EE6318336E63283FC01322F40E233230B
:1026500019F041933150FBCFFC01E20FF11D1082C4
:102660008EEF9FEFA6C021E030E0911102C020E084
:1026700030E0161617061CF4FB01319602C0E1E0AB
:10268000F0E02E0F3F1FBB2021F0EB2DF0E0319644
:1026900002C0E0E0F0E02E0F3F1FE12FF0E02E1728
:1026A0003F071CF4121B212F01C020E08E2D8871E2
:1026B00059F4F601822F30E2882319F031938150CA
:1026C000FBCFC20ED11C20E0992329F0D6019C93A8
:1026D000F60131966F0151110BC0F601822F90E384
:1026E000882319F091938150FBCFC20ED11C20E0BA
:1026F0000F2D060F9A81342F307144FF03C09133A0
:1027000009F40150101624F4093018F008E001C053
:1027100001E0AB0177FF02C040E050E0FB01E41BA9
:10272000F50BA1E0B0E0AC0FBD1FEA0FFB1F8EE27E
:10273000A82E4B01801A91080B2D10E011950195E0
:1027400011094F3FBFEF5B0721F4D601AC92119600
:102750006D01641775072CF08416950614F48181B9
:1027600001C080E3415051093196D60111967D0197
:102770004017510724F0D6018C936701E2CF64170C
:10278000750739F4963320F4953319F4311101C0EB
:1027900081E3F6018083F701822F90E2882319F00C
:1027A00091938150FBCFF701E20FF11D108280E081
:1027B00090E029960FB6F894DEBF0FBECDBFDF9133
:1027C000CF911F910F91FF90EF90DF90CF90BF902E
:1027D000AF909F908F900895992788270895F89437
:0227E000FFCF29
:1027E2003132333400010000000003000000009A7F
:1027F20005A205000057656C636F6D6520486F6D1B
:1028020065200A0043004143205374617274657469
:1028120000416C6C2046756E6374696F6E73200A9A
:1028220053746F707065642E2E002564002300209F
:1028320020416C61726D20416662727564740A0097
:10284200202056656E742056656E6C69677374003D
:102852003233413135364234383943373023442A12
:1028620057656C636F6D6520486F6D650A00416C3A
:1028720061726D212100496E6474617374204B6F23
:0628820064653A0A000043
:00000001FF
